:100000000C9434000C9446000C9446000C9446006A
:100010000C9446000C9446000C9446000C94460048
:100020000C9446000C9446000C9446000C94460038
:100030000C9446000C9446000C9446000C94460028
:100040000C9446000C9446000C9446000C94460018
:100050000C9446000C9446000C9446000C94460008
:100060000C9446000C94460011241FBECFEFD8E03C
:10007000DEBFCDBF11E0A0E0B1E001C01D92A03114
:10008000B107E1F70E9403010C9409010C940000F0
:100090005298539854985598569A209A389A259A77
:1000A000399A3A9A3B9A3C9A84B5836884BD85B55F
:1000B000816085BD17BC219AE0E8F0E0808181680D
:1000C0008083E1E8F0E080818960808380818860BE
:1000D0008083EFE6F0E080818260808388E09DE3AA
:1000E0009093890080938800E9E6F0E08081836046
:1000F00080838DB383608DBB089587BD089590E0A4
:1001000090938900809388000895869590E08358A5
:100110009F4F9093890080938800089580910401F7
:10012000909105010097A1F44C996CC04C9B6AC05A
:10013000289A86E687BD8FE790E0909389008093A8
:10014000880081E090E09093050180930401089578
:100150008130910509F053C0429A439A4A9B05C0E9
:100160002D9A90930B0180930A014A9910C02D9803
:1001700080910E0190910F01019690930F01809351
:100180000E0181E090E09093090180930801809135
:100190000A0190910B010197B9F4809108019091A7
:1001A0000901019789F480910E0190910F01019648
:1001B00090930F0180930E0110920B0110920A018F
:1001C000109209011092080180910E0190910F0187
:1001D00004973CF0439881E090E090930101809374
:1001E000000180910C0190910D0102975CF0429802
:1001F00081E090E0909303018093020108950297BB
:1002000009F4289808950E94480078940E948E006E
:06021000FDCFF894FFCFC2
:00000001FF
